:100000000C942A000C94BE000C94ED000C941C017E
:100010000C9434000C9434000C9434000C94340090
:100020000C9434000C9434000C9434000C94340080
:100030000C9434000C9434000C9434000C94340070
:100040000C9434000C9434000C9434000C94340060
:100050000C94340011241FBECFE5D8E0DEBFCDBF25
:100060000E947E000C944B010C940000413069F416
:10007000E82FF0E0218181E090E002C0880F991F15
:100080006A95E2F7822B81830895E82FF0E02181C1
:1000900081E090E002C0880F991F6A95E2F7809591
:1000A000822381830895E82FF0E0828121E030E00F
:1000B00002C0220F331F6A95E2F7282B228308958E
:1000C000E82FF0E0828121E030E002C0220F331FF0
:1000D0006A95E2F72095282322830895E82FF0E01F
:1000E000208181E090E002C0880F991F6A95E2F7B5
:1000F000822311F081E0089580E0089540E062E0FD
:1001000083E30E94360040E062E080E30E94360014
:1001100040E063E080E30E94360040E062E086E376
:100120000E94360041E060E086E30E94360041E034
:1001300062E089E30E94360041E063E089E30E94C7
:1001400036008BB7806E8BBF85B7846085BF84B760
:10015000806484BF789462E083E30E946E00811122
:10016000FACF60E086E30E94530062E089E30E94D8
:10017000530063E089E30E945300EDCF1F920F927A
:100180000FB60F9211242F933F934F935F936F936A
:100190007F938F939F93AF93BF93EF93FF9360E011
:1001A00086E30E9460002FE788E391E021508040C1
:1001B0009040E1F700C00000FF91EF91BF91AF9137
:1001C0009F918F917F916F915F914F913F912F916F
:1001D0000F900FBE0F901F9018951F920F920FB6A1
:1001E0000F9211242F933F934F935F936F937F93BD
:1001F0008F939F93AF93BF93EF93FF9362E089E355
:100200000E9460002FE788E391E0215080409040F9
:10021000E1F700C00000FF91EF91BF91AF919F9176
:100220008F917F916F915F914F913F912F910F909F
:100230000FBE0F901F9018951F920F920FB60F923E
:1002400011242F933F934F935F936F937F938F93DB
:100250009F93AF93BF93EF93FF9363E089E30E9473
:1002600060002FE788E391E0215080409040E1F763
:1002700000C00000FF91EF91BF91AF919F918F91CE
:100280007F916F915F914F913F912F910F900FBE92
:0A0290000F901F901895F894FFCF0F
:00000001FF
